:020000040800F2
:10000000880900207D590008472E0008492E000865
:100010004B2E00084D2E00084F2E00080000000057
:10002000000000000000000000000000512E000849
:10003000532E000800000000552E0008572E00081F
:1000400097590008975900089759000897590008D0
:1000500097590008975900089759000897590008C0
:100060001F2F000897590008975900089759000852
:1000700097590008975900089759000897590008A0
:100080009759000897590008975900089759000890
:100090009759000897590008975900089759000880
:1000A0009759000897590008975900089759000870
:1000B0000955000897590008F3540008975900089B
:1000C0009759000897590008975900089759000850
:1000D00097590008772C000897590008975900088D
:1000E0009759000897590008975900089759000830
:1000F0009759000897590008975900089759000820
:1001000097590008975900082529000897590008B1
:1001100097590008975900089759000897590008FF
:1001200097590008975900089759000897590008EF
:1001300000F002F800F053F80AA090E8000C8244A6
:100140008344AAF10107DA4501D100F048F8AFF283
:10015000090EBAE80F0013F0010F18BFFB1A43F0A5
:100160000103184748E6000068E60000103A24BF83
:1001700078C878C1FAD8520724BF30C830C144BF0C
:1001800004680C607047000000230024002500264E
:10019000103A28BF78C1FBD8520728BF30C148BFEA
:1001A0000B60704766290CF05083642908F01482B4
:1001B000782908F04D82002070471FB508F0FAFE3C
:1001C0000400002000210BF035F9401C6060002085
:1001D00000210BF019F9E0601FBD10B510BD09F04A
:1001E00015F81146FFF7E9FF00F0C2F809F08EFAA2
:1001F00003B4FFF7F2FF03BC05F060FB30BF72B63B
:1002000062B680F308887047F0B58DB0282103A846
:1002100008F03CFB1E2103A808F038FB7949486828
:100220000BF074FF04460D46764908680BF06EFF2C
:10023000064632460B4674A103A8CDE9004508F0F6
:100240008FF903AA0021084604F095FA7348006864
:1002500000280DDA72A20421012004F08CFA6F4804
:1002600000784042C2B20421462004F007FE0AE0B2
:100270006EA20421012004F07EFA6848027804216D
:10028000462004F0FBFD6C48006800280DDA6BA2E4
:100290000521012004F06FFA674800784042C2B29D
:1002A0000521462004F0EAFD0AE067A205210120AD
:1002B00004F061FA604802780521462004F0DEFD72
:1002C0001E2103A808F0E2FA624800680BF01EFF46
:1002D000044622460B4660A103A808F041F903AA90
:1002E00001213C2004F047FA1E2103A808F0CEFAB1
:1002F0005C4800680BF00AFF044622460B465AA1F0
:1003000003A808F02DF903AA0621002004F033FA0F
:100310001E2103A808F0BAFA5748038856480C383B
:10032000028856A103A808F01BF903AA02210020A5
:1003300004F021FA1E2103A808F0A8FA5349C86A5C
:100340000BF0E4FE04460D465049C86A0BF0DEFE91
:10035000064632460B464EA103A8CDE9004508F0FB
:10036000FFF803AA0321002004F005FA0DB0F0BD48
:10037000092005F04AFA05F0D9F84FF4165005F0B7
:10038000ACFA022005F042F902F06EFD02F092FD97
:1003900004F08CFE002141F61F4004F0ACFE482121
:1003A00044F6206004F0ACFF04F05AF802F06FFE4F
:1003B00005F00AF805F054F839A20021084604F0C7
:1003C0000AFA00BF02F04AF90028FBD104F0F4F861
:1003D00007F082F807F06AFB312141F61F4002F076
:1003E000A1FD0121324806F007FB09E03148006811
:1003F0000A2190FBF1F201FB120008B9FFF704FF9C
:10040000F4E70000E4010020783A2025332E33661B
:1004100020793A2025332E336600000000000020AA
:10042000656E636F6465724C20202D00656E636F8E
:100430006465724C20202B0004000020656E636F01
:100440006465725220202D00656E636F6465725280
:1004500020202B0008000020616E673A2025332EF3
:10046000316600000C00002064697374616E63657E
:100470003A2025332E346600402C014076656C20EE
:100480006C3A20256420256400000000380200201A
:100490007961772025332E33662025332E3366008D
:1004A000496E6974204D505520444D502E2E2E001B
:1004B000000C0040780000200CB500200190009056
:1004C0006C48006840F480306A49086000BF6948A1
:1004D000006800F4003000900198401C01900098E2
:1004E00018B90198B0F5A06FF1D16248006800F426
:1004F000003010B10120009001E000200090009831
:10050000012843D15C48006840F010005A49086057
:100510000846006820F0030008600846006840F0C4
:1005200002000860534840685249486008464068E5
:1005300048600846406840F480604860084640686B
:1005400020F47C1048600846406840F4E810486099
:100550000846006840F08070086000BF45480068A9
:1005600000F000700028F9D04248406820F00300F5
:10057000404948600846406840F00200486000BFBB
:100580003C48406800F00C000828F9D10CBD10B5BB
:10059000FFF792FF10BD10B53648006840F001002B
:1005A0003449086008464068344908403149486089
:1005B00008460068324908402E490860084600682D
:1005C00020F4802008600846406820F4FE0048605F
:1005D0004FF41F008860FFF7DAFF4FF000602949F1
:1005E000086010BD10B5002100200022214B5B687F
:1005F00003F00C0121B1042906D0082928D107E015
:10060000214B224C236027E01F4B204C236023E02A
:10061000184B5B6803F47010164B5B6803F4803270
:10062000022303EB904022B9194B4343174C23603C
:100630000DE0104B5B6803F4003323B1144B4343CC
:10064000124C236003E0104B4343104C236003E043
:100650000D4B0E4C236000BF00BF064B5B68C3F31D
:1006600003130C4CE15C094B1B68CB40074C236027
:1006700010BD000000100240002002400000FFF802
:10068000FFFFF6FE08ED00E000127A0028000020CF
:1006900000093D002C00002038B50446F74890F8CA
:1006A0002400C0B114B10220009001E000200090AD
:1006B000F24A1268D17BF14A526810786B460122E7
:1006C00002F0F5FD10B14FF0FF3038BD9DF800107D
:1006D000EA48417423E0E948807A10B94FF0FF30CE
:1006E000F3E724B1E548407C08B10020EDE714B100
:1006F0000120009001E000200090E04A1268D17BC8
:10070000DE4A526810786B46012202F0D0FD10B12B
:100710004FF0FF30D9E79DF80010D8484174002011
:10072000D3E738B500241FE0D4480068C07AA0425F
:1007300004D0D2480068407DA04200D112E0CF49E9
:10074000496808786B460122214602F0FBFC10B193
:100750004FF0FF3038BD9DF800202146C8A007F0BB
:10076000F3FE00BF601CC4B2C44840680079A042D8
:10077000DADC0020EEE770B504460D46BF4800689D
:10078000C07AA04204D0BD480068407DA04202D19A
:100790004FF0FF3070BDB94840680079A04202DCDC
:1007A0004FF0FF30F6E7B549496808782B4601223B
:1007B000214602F0C7FCEDE738B50446AF4890F893
:1007C0002300A04201D1002038BD14B13020009098
:1007D00001E000200090A948807C20B19DF8000035
:1007E00040F002000090A54890F8220020B19DF84A
:1007F000000040F080000090A04A1268117D9F4ADE
:10080000526810786B46012202F051FD10B14FF092
:10081000FF30D9E7994880F823400020D4E738B565
:10082000044604F0700010B10120009005E014B1FE
:100830000020009001E040200090904A1268917CD6
:100840008E4A526810786B46012202F030FD20B1CA
:1008500000218A488172481E38BD9DF8000020F0B2
:100860004001864801730020009004F0400020B948
:100870009DF8000040F00400009004F0200020B932
:100880009DF8000040F00200009004F0100020B934
:100890009DF8000040F00100009004F0080020B92D
:1008A0009DF8000040F038000090744A1268D17C36
:1008B000724A526810786B46012202F0F8FC20B1AF
:1008C00000216E488172481EC6E724B1082C02D070
:1008D0000020FFF771FF6948847200210175322002
:1008E00004F061FE0020B7E738B504466348807C19
:1008F000A04201D1002038BD002C46D05F4A1268CA
:1009000011795E4A526810786B46012202F01AFC97
:1009100010B14FF0FF30EEE79DF8000020F020000E
:100920000090564A12681179544A526810786B4602
:10093000012202F0BCFC10B14FF0FF30DBE70320D6
:1009400004F031FE022000904C4890F8220020B1C3
:100950009DF8000040F080000090484890F8230087
:1009600020B19DF8000040F030000090434A12682A
:10097000117D424A526810786B46012202F097FCC2
:10098000002851D04FF0FF30B5E73C4A126811798A
:100990003A4A526810786B46012202F0D3FB10B13C
:1009A0004FF0FF30A7E73548807A00F0010028B10A
:1009B0009DF8000040F02000009004E09DF8000049
:1009C00020F0200000902D4A126811792B4A5268BD
:1009D00010786B46012202F06AFC10B14FF0FF3034
:1009E00089E7032004F0DFFD244890F8220010B1CD
:1009F0008020009001E000200090204890F8230023
:100A000020B19DF8000040F0300000901B4A1268B1
:100A1000117D1A4A526810786B46012202F047FC99
:100A200010B14FF0FF3066E714488474002062E78D
:100A300008B51248807A10B94FF0FF3008BD002089
:100A400000900E4A1268D17B0C4A526810786B46AF
:100A5000012202F02CFC10B14FF0FF30EEE7074A04
:100A600012685179054A526810786B46012202F0EB
:100A70001EFC68B14FF0FF30E0E700003C000020B2
:100A8000252335783A20252335780D0A000000000B
:100A9000F84A12681179F74A526810786B460122B9
:100AA00002F005FC10B14FF0FF30C7E7F14890F8B5
:100AB0002400002853D00C200090EE4A12681179CF
:100AC000EC4A526810786B46012202F0F0FB10B13C
:100AD0004FF0FF30B2E7142004F065FDC020009015
:100AE000E448807A00F0010020B19DF8000040F059
:100AF00020000090DF4A12681179DE4A52681078AF
:100B00006B46012202F0D3FB10B14FF0FF3095E7A6
:100B1000D848407C10B10220009001E000200090F5
:100B2000D44A1268D17BD34A526810786B460122AE
:100B300002F0BDFB10B14FF0FF307FE700200090C6
:100B4000CC4A12685179CB4A526810786B46012220
:100B500002F0ADFB002855D04FF0FF306EE70420C7
:100B60000090C44A12681179C24A526810786B46E4
:100B7000012202F09CFB10B14FF0FF305EE7BD4850
:100B8000807C20B9BB48807A00F0010010B9402079
:100B9000009001E060200090B64A12681179B54AD1
:100BA000526810786B46012202F081FB10B14FF0C1
:100BB000FF3043E7322004F0F6FCAE48407C10B131
:100BC0000120009001E000200090AA4A1268D17B29
:100BD000A84A526810786B46012202F068FB10B1F7
:100BE0004FF0FF302AE7A34A12685179A14A5268B0
:100BF0001078A04B1033012202F059FB10B14FF0D6
:100C0000FF301BE7002019E770B50446002624F0EA
:100C10000104984890F8240008B1002070BD954860
:100C2000807A10B94FF0FF30F8E79248057C807A5F
:100C30002040904908740846007CA04202D04FF042
:100C4000FF3600E0002614B98A48007D18B1012063
:100C5000FFF722FD02E00020FFF71EFD3CB1FFF789
:100C6000E7FE20B1834805744FF0FF30D6E73046E9
:100C7000D4E738B504467F48807A10B94FF0FF308A
:100C800038BDBC2C02DB0120009015E0622C02DB99
:100C90000220009010E02A2C02DB032000900BE0E1
:100CA000142C02DB0420009006E00A2C02DB052055
:100CB000009001E0062000906E48C07A9DF8001078
:100CC000884201D10020DBE76A4A12689178694ABC
:100CD000526810786B46012202F0E9FA10B14FF029
:100CE000FF30CDE79DF800106248C1720020C7E7D1
:100CF00038B50446282C02DD4FF0FF3038BDDCB992
:100D00000020FFF759FD00208DF8000007208DF826
:100D10000100584A1268917C564A526810786B4616
:100D2000022202F0C4FA10B14FF0FF30E6E70021D2
:100D3000504801750020E1E70120FFF73DFD20202C
:100D40008DF80000012C06D100208DF8010005204F
:100D5000FFF78FFF17E0052C06DC01208DF801005E
:100D60000520FFF786FF0EE0142C06DC02208DF82C
:100D700001000A20FFF77DFF05E003208DF8010048
:100D80001420FFF776FF9DF80100072101EB80108A
:100D9000C0B28DF80100374A1268917C354A52681A
:100DA00010786B46022202F082FA10B14FF0FF3049
:100DB000A4E708212F4881720021017301210175E8
:100DC0000020FFF721FF002098E738B504462948A6
:100DD000807A10B94FF0FF3038BD264890F82400D3
:100DE00010B14FF0FF30F7E72248007D50B134B129
:100DF000282C04DCE0B2FFF77BFF0020ECE70020AA
:100E0000FFF776FF042C01DA042404E0B4F57A7FBE
:100E100001DD4FF47A744FF47A7090FBF4F0401EC9
:100E2000C0B20090134A12685178124A5268107882
:100E30006B46012202F03BFA10B14FF0FF30CBE7D6
:100E40009DF80000401C4FF47A7191FBF0F081B2E4
:100E50000848C1810146C9894810FFF70AFF0020F0
:100E6000BAE738B504460348807A28B94FF0FF3016
:100E700038BD00003C000020022C06D0042C07D016
:100E8000082C08D0102C0CD108E0002000900BE0BA
:100E90000820009008E01020009005E01820009045
:100EA00002E04FF0FF30E3E700BFF948407A9DF8D9
:100EB0000010B0EBE10F01D10020D9E7F44A12682D
:100EC000D179F34A526810786B46012202F0EFF9AB
:100ED00010B14FF0FF30CBE79DF80000C110EC4897
:100EE00041720020C4E738B50446E948807A10B959
:100EF0004FF0FF3038BDFA2C09D0B4F5FA7F09D095
:100F0000B4F57A7F09D0B4F5FA6F0CD108E000206F
:100F100000900BE00820009008E01020009005E011
:100F20001820009002E04FF0FF30E3E700BFD84800
:100F3000007A9DF80010B0EBE10F01D10020D9E755
:100F4000D34A12689179D24A526810786B460122CE
:100F500002F0ADF910B14FF0FF30CBE79DF8000083
:100F6000C010CB4908720020C4E71CB580208DF862
:100F70000000C74A1268917CC54A526810786B46D7
:100F8000012202F094F910B14FF0FF301CBD322065
:100F900004F009FB00208DF80000BD4A1268917C26
:100FA000BB4A526810786B46012202F080F910B1FA
:100FB0004FF0FF30EAE7B64A1268917DB44A5268B2
:100FC00010786B46062202F0BDF810B14FF0FF30EA
:100FD000DCE79DF80500C007400F9DF8031001F005
:100FE000010140EA41009DF8011001F0010140EAD1
:100FF000010494B1012C03D10121A548C17431E051
:10100000022C03D10021A248C1742BE02146A1A0EB
:1010100007F09AFA4FF0FF30B8E79D4A1268D1788E
:101020009B4A526810786B46012202F08BF810B18F
:101030004FF0FF30AAE79DF8000000F00F042CB934
:101040009E4807F081FA4FF0FF309FE7042C06D14D
:101050009BA007F079FA01218D48C17402E00021BC
:101060008B48C174FF218A488172FF208849087229
:10107000FF2187484172C1724FF6FF71C181FF2184
:10108000017481740121017380F82210002180F81D
:10109000231041750175163001604160816016387A
:1010A00080F8241080F82510C1844FF4FA60FFF70F
:1010B0001AFF10B14FF0FF3068E70220FFF7D1FEB2
:1010C00010B14FF0FF3061E72A20FFF7D2FD10B1D9
:1010D0004FF0FF305AE73220FFF777FE10B14FF0A4
:1010E000FF3053E70020FFF78FFD10B14FF0FF30C6
:1010F0004CE70020FFF7F8FB10B14FF0FF3045E759
:101100000020FFF78CFB002040E770477CB50446C9
:101110000D465F48807A00F0700010B94FF0FF3044
:101120007CBD5B4A1268117B594A526810786B4645
:10113000062202F007F810B14FF0FF30F0E79DF8FB
:1011400001009DF8001040EA012000B220809DF8C7
:1011500003009DF8021040EA012000B260809DF873
:1011600005009DF8041040EA012000B2A08015B1EE
:101170002846FFF7CAFF0020D2E77CB504460D469B
:101180004348807A00F0080010B94FF0FF307CBD72
:101190003F4A1268517B3E4A526810786B460622DD
:1011A00001F0D0FF10B14FF0FF30F0E79DF80100E3
:1011B0009DF8001040EA012000B220809DF8030055
:1011C0009DF8021040EA012000B260809DF8050001
:1011D0009DF8041040EA012000B2A08015B1284615
:1011E000FFF793FF0020D2E72DE9FE4F05460C469E
:1011F0002748807A18B94FF0FF30BDE8FE8F244AA7
:101200001268917B224A5268107802AB022201F0E8
:1012100099FF10B14FF0FF30EFE79DF809009DF8FE
:10122000081040EA012006B214B12046FFF76DFF16
:1012300017494968C8880BF04DF91549019049686C
:10124000B1F908000BF02EF9834630460BF02AF96D
:10125000594600900BF084FA824601990AF0F0FF9B
:1012600081461F490AF07EFF80464FF08F410BF008
:1012700079F907460BF0DAF828600020BDE710B5D1
:1012800088B004461CB94FF0FF3008B010BD29E00B
:101290003C000020556E737570706F727465642029
:1012A000736F6674776172652070726F64756374B2
:1012B000207265762025642E0A0000005CE7000895
:1012C00048616C662073656E7369746976697479B8
:1012D000207061727420666F756E642E0A000000C3
:1012E00000000C42206830B9606820B9A06810B9CD
:1012F000002008B010BDFA494968087806AB0322FF
:10130000114601F01FFF10B14FF0FF30F1E79DF8DB
:101310001800082101EB201000F00F00ADF80000CC
:101320009DF8190001EB201000F00F00ADF802004D
:101330009DF81A0001EB201000F00F00ADF804003A
:1013400020684100BDF90000403091FBF0F000B290
:10135000ADF8100060684100BDF90200403091FB1B
:10136000F0F000B2ADF81200A0684100BDF9040031
:10137000403091FBF0F000B2ADF81400D849496854
:10138000087806AB0622114601F0DCFE10B14FF0E2
:10139000FF30AEE79DF819009DF8181040EA0120D3
:1013A00000B2ADF808009DF81B009DF81A1040EA45
:1013B000012000B2ADF80A009DF81D009DF81C1038
:1013C00040EA012000B2ADF80C00BDF81000BDF8F5
:1013D0000810084400B2ADF81000BDF81200BDF8C6
:1013E0000A10084400B2ADF81200BDF81400BDF8B0
:1013F0000C10084400B2ADF81400BDF81000000A4B
:101400008DF81800BDF81000C0B28DF81900BDF8B5
:101410001200000A8DF81A00BDF81200C0B28DF853
:101420001B00BDF81400000A8DF81C00BDF8140064
:10143000C0B28DF81D00AA494968087806AB06229B
:10144000114601F034FF10B14FF0FF3051E700209A
:101450004FE70146A248007A30B1012807D00228A0
:1014600009D003280FD10AE0FA2008800EE04FF4DB
:10147000FA7008800AE04FF47A70088006E04FF4B2
:10148000FA60088002E00020088000BF00BF002052
:10149000704701469248407A30B1012807D00228AF
:1014A00008D003280CD108E0022008700BE00420CB
:1014B000087008E00820087005E01020087002E0BD
:1014C0004FF0FF30704700BF8548C07C18B10878E6
:1014D0004006000E08700020F4E701468048C07AFC
:1014E000082817D2DFE800F01704070A0D101318B8
:1014F000BC20088013E06220088010E02A200880C9
:101500000DE0142008800AE00A20088007E005208A
:10151000088004E000BF00BF0020088000BF00BFBB
:101520000020704701466E4890F8240010B14FF03B
:10153000FF3070476A48C08908800020F9E70146FB
:1015400000200880401E704701464FF0FF30704772
:1015500001466348007A30B1012807D0022808D03C
:1015600003280CD108E05F4808600BE05E48086083
:1015700008E05E48086005E05D48086002E04FF062
:10158000FF30704700BF0020FBE701465448407A17
:1015900030B1012808D002280AD0032810D10BE06E
:1015A0004FF4804008800EE041F69C7008800AE00D
:1015B0004FF48050088006E04FF40060088002E09D
:1015C0004FF0FF30704700BF4548C07C10B108881D
:1015D000401008800020F5E701464148007C087073
:1015E0000020704701463E48807A10B10120087003
:1015F00001E0002008700020704738B504463848E4
:10160000807A10B94FF0FF3038BD354A1268117C2E
:10161000334A526810786B46022201F093FD10B1F4
:101620004FF0FF30F0E79DF801009DF8001040EA10
:10163000012000B220800020E6E72DE9FE4F07469A
:10164000884692461D46DDF830B000260024244826
:1016500090F8240010B1601EBDE8FE8F00202870B5
:101660001F48807A10B94FF0FF30F5E71C48007C26
:1016700010B94FF0FF30EFE71948007C00F0400050
:1016800008B1B01CC6B21648007C00F0200008B1BA
:10169000B01CC6B21248007C00F0100008B1B01CAB
:1016A000C6B20F48007C00F0080008B1B01DC6B2F9
:1016B0000B4A1268917A0A4A526810786B460222E5
:1016C00001F040FD10B14FF0FF30C5E79DF801007B
:1016D0009DF8001040EA0129B1450BDA0020BBE774
:1016E0003C000020000003430000834233330342E8
:1016F00033338341FC4840684088B9EB600F17DD05
:10170000F94A1268517CF84A526810786B460122F7
:1017100001F018FD10B14FF0FF309DE79DF800007B
:1017200000F0100020B1FFF783F96FF0010093E79C
:101730005046FFF7EAFCEC4A1268D17AEA4A52684E
:1017400010786B46324601F0FDFC10B14FF0FF30CF
:1017500082E799FBF6F0401E8BF80000002028700D
:10176000B4422AD0E048007C00F0080028B3601C96
:101770001DF800001DF8041040EA012000B2A8F88E
:101780000000E01C1DF80010A01C1DF8000041EA3C
:10179000002000B2A8F80200601D1DF80010201DF6
:1017A0001DF8000041EA002000B2A8F804002878E3
:1017B00040F008002870A01D84B2B44213D0CA487B
:1017C000007C00F0400070B1601C1DF800001DF8A6
:1017D000041040EA012000B23880287840F0400030
:1017E0002870A01C84B2B44213D0BF48007C00F023
:1017F000200070B1601C1DF800001DF8041040EAC4
:10180000012000B27880287840F020002870A01CC9
:1018100084B2B44213D0B448007C00F0100070B120
:10182000601C1DF800001DF8041040EA012000B201
:10183000B880287840F010002870A01C84B20020E6
:101840000AE7F8B504460F461646A74890F8240064
:1018500010B94FF0FF30F8BDA348807A10B94FF0AF
:10186000FF30F8E7A04A1268917A9F4A52681078D0
:101870006B46022201F066FC10B14FF0FF30EAE740
:101880009DF801009DF8001040EA0125A54203DA09
:1018900000203070401EDEE7934840684088B5EB7A
:1018A000600F17DD904A1268517C8F4A5268107899
:1018B0006B46012201F046FC10B14FF0FF30CAE741
:1018C0009DF8000000F0100020B1FFF7B1F86FF0B4
:1018D0000100C0E7E2B2844B1B68D97A824B5B6897
:1018E00018783B4601F02EFC10B14FF0FF30B2E704
:1018F00095FBF4F0401E30700020ACE701467A48BA
:1019000080F82210002070477CB50546764949686A
:10191000087801AB04220D2101F014FC08B1072066
:101920007CBD9DF80700C0F301109DF8041001F084
:10193000E00140EAE1008DF800009DF80700C0F3E7
:1019400081009DF8051001F0E00140EAE1008DF80A
:1019500001009DF8070000F003009DF8061001F05B
:10196000E00140EAE1008DF8020000241CE01DF8CF
:10197000040018B9002045F8240013E05B4845F83E
:10198000240006E055F8240059490AF0EBFD45F81B
:1019900024001DF80400401EC0B20DF80400002809
:1019A000F0D100BF601CC4B2032CE0DB0020B7E71D
:1019B0002DE9FE4F06460F4600256846FFF7A4FFB7
:1019C000002442E056F8240057F82410A0EB010A46
:1019D000BAF1000F01DB514601E0CAF100010846EF
:1019E0000AF060FD83464FF08F410AF029FC8046E3
:1019F0005DF8240000210AF0E5FC16D05DF8241003
:101A000040460AF01DFC82464FF07E510AF0A8FEC7
:101A1000814629F0004A3748416A50460AF06EFE76
:101A200012D20120A04005430EE03248C169404671
:101A30000AF064FD05D32F48016A40460AF05EFEB5
:101A400002D20120A0400543641C032CBADB2846C7
:101A5000BDE8FE8F2DE9FC5F06460F4600252249B2
:101A60004968087801AB03220D2101F06BFB10B12E
:101A70000720BDE8FC9F9DF8040000F01F008DF8D2
:101A800004009DF8050000F01F008DF805009DF88A
:101A9000060000F01F008DF80600002462E056F8F2
:101AA000240057F82410A0EB010BBBF1000F01DB61
:101AB000594601E0CBF1000108460AF0F3FC4FF073
:101AC0008F4100900AF0BCFB814601A8005DC0B3C5
:101AD000084908680AF0FEFC8346594606480AF0A1
:101AE000AFFB80460FE000003C0000207B14AE3EC0
:101AF0001D5A843F74C9000800B04C45FE49404659
:101B00000AF030FD804601A8005D401EC0B201A968
:101B100008550028F2D1414648460AF091FB834619
:101B20004FF07E510AF01CFE82462AF0004BF3482B
:101B3000816958460AF0E2FD13D20120A040054316
:101B40000FE0FFE7ED48016948460AF0D7FC05D3EE
:101B5000EA48416948460AF0D1FD02D20120A0407E
:101B60000543641C032C9ADB284682E72DE9F04FDD
:101B700087B005460C46914601208DF810000020E4
:101B80008DF81100DE4A1268917CDD4A52681078A7
:101B900004AB022201F08BFB20B14FF0FF3007B005
:101BA000BDE8F08F642003F0FEFC00208DF81000EB
:101BB000D34A1268D17BD24A5268107804AB012212
:101BC00001F075FB10B14FF0FF30E8E7CC4A126826
:101BD0005179CB4A5268107804AB012201F067FBBF
:101BE00010B14FF0FF30DAE7C54A1268917CC44A61
:101BF0005268107804AB012201F059FB10B14FF08C
:101C0000FF30CCE7BE4A1268D17DBD4A52681078D9
:101C100004AB012201F04BFB10B14FF0FF30BEE7E7
:101C2000B74A12681179B64A5268107804AB01229B
:101C300001F03DFB10B14FF0FF30B0E70C208DF804
:101C40001000AF4A12681179AD4A5268107804AB9F
:101C5000012201F02CFB10B14FF0FF309FE70F2065
:101C600003F0A1FCA648806A407A8DF81000A44ACF
:101C700012689178A24A5268107804AB012201F0F0
:101C800016FB10B14FF0FF3089E79D48806A007A5B
:101C90008DF810009A4A12685178994A5268107863
:101CA00004AB012201F003FB10B14FF0FF3076E7E7
:101CB000B9F1000F07D09248806A807A40F0E000C6
:101CC0008DF8100004E08E48806A807A8DF810004C
:101CD0008B4A126891798A4A5268107804AB0122C3
:101CE00001F0E5FA10B14FF0FF3058E7B9F1000FFD
:101CF00007D08348806AC07A40F0E0008DF8100079
:101D000003E07E48C07A8DF810007D4A1268D179D0
:101D10007B4A5268107804AB012201F0C8FA10B176
:101D20004FF0FF303BE7B9F1000F02D0642003F021
:101D30003AFC40208DF81000714A12681179704AFF
:101D40005268107804AB012201F0B1FA10B14FF0E3
:101D5000FF3024E778208DF81000694A1268517925
:101D6000674A5268107804AB012201F0A0FA10B162
:101D70004FF0FF3013E76149888903F014FC00201D
:101D80008DF810005E4A126851795D4A52681078E9
:101D900004AB012201F08BFA10B14FF0FF30FEE6E8
:101DA000574A1268917A564A5268107804AB022258
:101DB00001F0C8F910B14FF0FF30F0E69DF81100C6
:101DC0009DF8101040EA012B0C209BFBF0F0C6B2EE
:101DD0000020A86068602860A06060602060824683
:101DE00065E0474A1268D17A454A5268107804ABD8
:101DF0000C2201F0A7F910B14FF0FF30CFE69DF8AB
:101E000011009DF8101040EA012000B2ADF8080062
:101E10009DF813009DF8121040EA012000B2ADF8C1
:101E20000A009DF815009DF8141040EA012000B248
:101E3000ADF80C00BDF90810206808442060BDF919
:101E40000A10606808446060BDF90C10A06808447E
:101E5000A0609DF817009DF8161040EA012000B21E
:101E6000ADF800009DF819009DF8181040EA012017
:101E700000B2ADF802009DF81B009DF81A1040EA70
:101E8000012000B2ADF80400BDF900102868084434
:101E90002860BDF90210686808446860BDF9041044
:101EA000A8680844A8600AF1010000F0FF0AB245E2
:101EB00097DB1248D0F800C02868C117090441EA2E
:101EC0001041070462460023384606F019FB3246EB
:101ED0000023CDE9020106F013FB28600748D0F883
:101EE00000C06868C117090441EA1041070462464E
:101EF0000023384606E0000054E3853F74C900081B
:101F00003C00002006F0FCFA32460023CDE9020135
:101F100006F0F6FA6860FE48D0F800C0A868C1175D
:101F2000090441EA1041070462460023384606F0DE
:101F3000E7FA32460023CDE9020106F0E1FAA86093
:101F4000F348D0F804C02168C817000440EA1148DB
:101F50000F04624600233846414606F0D1FA324665
:101F60000023CDE9020106F0CBFA2060E848D0F862
:101F700004C06068C117090441EA104107046246C1
:101F80000023384606F0BCFA32460023CDE90201B0
:101F900006F0B6FA6060DE48D0F804C0A068C11749
:101FA000090441EA1041070462460023384606F05E
:101FB000A7FA32460023CDE9020106F0A1FAA0609B
:101FC000A068002804DDA068A0F58030A06003E0D0
:101FD000A06800F58030A0600020E0E538B5044638
:101FE000CC4890F82400A04201D1002038BD24B391
:101FF000C84890F8250010B94FF0FF30F6E70020F0
:10200000FEF74AFB0020FEF76FFCC249C88CFEF7C2
:10201000DCFE00200090BF49496808786B46012229
:10202000232101F044F90121BA4880F8241001204D
:10203000FEF732FBFEF7FCFC13E00020FEF72CFB62
:10204000B448007C0090B349496808786B46012287
:10205000232101F02CF90021AE4880F82410FEF76E
:10206000E7FC0020C2E72DE9F04F8DB083460F4614
:1020700002200C90A74890F8240020B10020FFF720
:10208000ADFF012600E0002603A8FFF7E2F905A84E
:10209000FFF7FFF901A8FFF720FA02A8FFF742FABD
:1020A0009C4890F80AA004A8FFF796FA002407E0DD
:1020B000002239465846FFF759FD00B902E0641C7A
:1020C000022CF5DB00BF022C01D1002528E0002402
:1020D00007E0012206A909A8FFF748FD00B902E0C0
:1020E000641C022CF5DB00BF022C01D1002517E097
:1020F00006A93846FFF75CFC00F0FF0809A958461E
:10210000FFF7A8FC00F0FF090025B9F1000F01D18D
:1021100045F00105B8F1000F01D145F0020500BFFF
:10212000FF207C490872FF217A484172C1724FF644
:10213000FF71C181FF218172017401210173BDF81A
:102140000C00FEF7D0FE9DF81400FEF78AFEBDF8E5
:102150000400FEF78EFDBDF80800FEF736FE50467F
:10216000FEF75DFB9DF81000FEF74EFD16B1012055
:10217000FFF734FF28460DB0BDE8F08FF8B50446F0
:102180000D46164616B94FF0FF30F8BD6148807A0B
:1021900010B94FF0FF30F8E720128DF80000E0B2E0
:1021A0008DF801009DF8010028445A494968498981
:1021B000884202DD4FF0FF30E7E7564A1268117E91
:1021C000544A526810786B46022201F070F810B140
:1021D0004FF0FF30D9E7EAB24E4B1B68597D4D4BAB
:1021E0005B681878334601F062F810B14FF0FF30A9
:1021F000CBE70020C9E7F8B504460D46164616B9E8
:102200004FF0FF30F8BD4348807A10B94FF0FF30EF
:10221000F8E720128DF80000E0B28DF801009DF87B
:10222000010028443B4949684989884202DD4FF052
:10223000FF30E7E7374A1268117E364A5268107855
:102240006B46022201F033F810B14FF0FF30D9E7AE
:10225000EAB2304B1B68597D2E4B5B6818783346C9
:1022600000F070FF10B14FF0FF30CBE70020C9E75E
:102270002DE9F04385B005460E469046994625481F
:1022800090F8250020B14FF0FF3005B0BDE8F08395
:1022900016B94FF0FF30F8E7002423E0281B102880
:1022A00001DD102000E0281B87B232193946204694
:1022B000FFF764FF10B14FF0FF30E6E701AA39469F
:1022C0002046FFF798FF10B14FF0FF30DDE73019DF
:1022D0003A4601A906F084FA10B16FF00100D4E784
:1022E000E01984B2AC42D9DB4FEA28208DF8000017
:1022F00008F0FF008DF80100064A1268917E054A39
:10230000526810786B46022200F0D1FF38B103E02A
:1023100074C900083C0000204FF0FF30B5E70121F0
:10232000FE4880F82510A0F826900020ADE7014671
:10233000FA4890F824000870002070474FF0FF30F2
:10234000704702464FF0FF30704701464FF0FF30B4
:102350007047F8B505460F461446002C70D0B5F509
:10236000FF5F01DDFF2605E0202D01DA012601E0F7
:10237000C5F3471607B90127282C02DD4FF0FF30BF
:10238000F8BDE648407D28BBE44890F8240038B109
:102390000020FFF723FE0121E04880F8201003E031
:1023A0000021DE4880F82010DC481630FFF751F895
:1023B000DA481830FFF76DF8D8481A30FFF78DF873
:1023C000D6481C30FFF7AEF8D448817A81771F30A9
:1023D000FFF702F90020FEF75FF90020FEF788FC06
:1023E00000208DF80000CD4A12689178CB4A5268DF
:1023F00010786B46012200F05AFF10B14FF0FF3009
:10240000BEE740208DF80000C44A1268D17BC34A61
:10241000526810786B46012200F049FF00B165E078
:102420008DF800608DF80170BC4A1268117ABB4AC1
:10243000526810786B46022200F039FF08B155E06F
:1024400047E0052003F0AFF8B448407A072101EBDC
:10245000C000C0B28DF80000B04A1268D179AF4A0E
:10246000526810786B46012200F021FF00B13DE078
:1024700020208DF80000012C03D100208DF80100F0
:102480000EE0052C03DC01208DF8010008E0142C7F
:1024900003DC02208DF8010002E003208DF801002A
:1024A0009DF80100072101EB8010C0B28DF80100FA
:1024B0009A4A1268917C994A526810786B460222B7
:1024C00000F0F5FE00B111E00121944841750020B3
:1024D00056E7924A1632002103E0505C00B105E055
:1024E000491C0C29F9D34FF0FF3049E7FF208B49F5
:1024F0000872FF2189484172C1724FF6FF71C18194
:10250000FF2181720174012101730146887FFEF76A
:1025100086F98249C88AFEF7E6FC8049087EFEF704
:10252000A0FC7E49488BFEF7A4FB7C49888BFEF714
:102530004CFC7A49C87FFEF767FB784890F820008A
:1025400010B10120FFF74AFD0021744841750020B9
:1025500016E770B588B002A905A8FFF784FD044608
:10256000032C3ED101A8FEF7F3FF059809F09AFF6E
:102570000646019909F0F6FF054609F057FF059058
:10258000069809F08FFF0646019909F0EBFF054612
:1025900009F04CFF0690079809F084FF0646019960
:1025A00009F0E0FF054609F041FF079005A801F09A
:1025B0008EF86846FEF7E9FFBDF800100298484320
:1025C0000290BDF80010039848430390BDF8001036
:1025D00004984843049002A801F00CF9002008B0C8
:1025E00070BD0120FBE7014691F90020002A01DDC2
:1025F00000201EE091F90020002A01DA042018E0F2
:1026000091F90120002A01DD012012E091F9012059
:10261000002A01DA05200CE091F90220002A01DDF0
:10262000022006E091F90220002A01DA062000E0EB
:102630000720704710B504462046FFF7D4FF034635
:10264000E01CFFF7D0FF43EAC00083B2A01DFFF7F4
:10265000CAFF43EA801083B2184610BD70B500244B
:1026600000F069FEFEF781FC002840D17820FEF7DB
:10267000D6F8C4B20CB1012070BD7820FEF7C4FAC0
:10268000C4B20CB10220F7E76420FEF79EFBC4B28F
:102690000CB10320F0E700F07FFFC4B20CB10420BE
:1026A000EAE71F48FFF7C6FF054600F07FFFC4B208
:1026B0000CB10520E0E740F2731001F0B8FBC4B2A2
:1026C0000CB10620D8E7642001F02AF9C4B20CB19D
:1026D0000720D1E7FFF73DFF04460CB10820CBE708
:1026E0000120FFF77BFCC4B21CB10920C4E70A201B
:1026F000C2E70020C0E72DE9F04F99B004460D462F
:1027000016464FF07E574FF000084FF000094FF08B
:10271000000A12A813A918AB0EAA03E03C0000207F
:1027200068000020CDE9001014A916A801F0DEFC15
:1027300018B1012019B0BDE8F08FBDF84C0000F4CD
:10274000807000287ED00E9809F0ACFE83464FF0D2
:102750009D4109F075FD07460F9809F0A3FE8346D9
:102760004FF09D4109F06CFD8046109809F09AFEEB
:1027700083464FF09D4109F063FD8146119809F0B1
:1027800091FE83464FF09D4109F05AFD824639463D
:102790004FF0804009F0E6FE4946059009F0E2FE60
:1027A000414607904FF0404009F0DCFE514605904D
:1027B00009F0D8FE0690079909F0D4FC834609F089
:1027C000A5FCCDE9080108F0D7F94FF06632544B6B
:1027D000CDE90A0109F08AF9CDE90C0108F040FEC3
:1027E000206049464FF0804009F0BCFE4946029007
:1027F00009F0B8FE414604904FF0404009F0B2FEA7
:102800004146029009F0AEFE0390049909F0A8FF3A
:1028100083464FF07E5109F0A5FC059009F076FC47
:10282000CDE9080139464FF0804009F09BFE414652
:10283000039009F097FE494604904FF0804009F05C
:1028400091FE00E068E05146039009F08BFE83465C
:10285000049909F087FC059009F058FCCDE90601C0
:10286000DDE9082308F0D0FB4FF066322C4BCDE9B0
:102870000A0109F03BF9CDE90C0108F0F1FD2860EF
:102880005146504609F06EFE49460490484609F00C
:1028900069FE41460390404609F064FE39460190C6
:1028A000384609F05FFE0090019909F05BFC029048
:1028B000039909F055FF8346049909F051FF0590EB
:1028C00009F024FCCDE908015146384609F04AFEDA
:1028D00049460490404609F045FE0390049909F0EA
:1028E00041FC4FF08041059009F03CFE834609F021
:1028F0000DFCCDE90601DDE9082308F085FB4FF06A
:102900006632074BCDE90A0109F0F0F8CDE90C0178
:1029100008F0A6FD306001E002200BE7002009E787
:1029200066A64C4070B50121F74804F02EFB002844
:102930007ED0F6480078012804D1F5480068401C94
:10294000F34908604FF08040808C00B2F149086084
:1029500000204FF080418884EF480088C0F1FF30AC
:1029600000B2401CED4908600020EB490880E948AE
:1029700000684042E7490860E84800684042E7498B
:10298000086005F026F80021E548006809F01AFD06
:1029900005D10021E348006809F014FD11D0E24997
:1029A000DF48006809F0AAFE12D2DE48006809F08C
:1029B000ADFB21F0004104460022DC4B09F05AF83F
:1029C00006D2D348006818B90120D949087012E02E
:1029D0000121D84803F053F950B10221D54803F042
:1029E0004EF928B1D449CE48006809F087FD02D2DB
:1029F0000220CF490870CE48007801287BD1C94811
:102A0000006809F083FB21F0004104460022C74B17
:102A100009F030F856D2C9480168C148006809F089
:102A20006DFE4FD2C649BE48006809F067FD00E060
:102A30001CE147D2BA480168BA48006805F064FA58
:102A40000021C048006809F0BDFC07D1B448006807
:102A5000BD490860B3480068BC490860BC49BA4831
:102A6000006809F04BFE03D2BA48B449086020E080
:102A7000B949B548006809F041FE03D2B748AF49EB
:102A8000086016E0B649B048006809F037FE03D286
:102A9000B448AA4908600CE0B349AB48006809F0A3
:102AA0002DFE03D2AC48A549086002E0AF48A34917
:102AB00008604FF07E51A348006809F053FBA1491C
:102AC000086068E09748006809F020FB21F00041A9
:102AD00004460022A64B08F0CDFF0DD29249904843
:102AE000006809F00BFE07D28D4801688D48006828
:102AF00005F0B3FA4FE03FE08A48006809F006FBB2
:102B000021F00041044600229A4B08F0B3FF10D296
:102B10004FF07E518248006809F0F0FD09D28649E5
:102B20007F48006809F0EAFC03D20220804908705F
:102B300031E07C48006809F0E9FA21F000410446E0
:102B400000228D4B08F096FF0FD2002174480068D8
:102B500009F038FC05D100217248006809F032FC08
:102B600003D0864805F079F915E0854805F075F938
:102B70000020744908600EE06D48007802280AD1F0
:102B800080480368804800210268084605F067F81D
:102B900003206749087066480078032861D1002146
:102BA000084605F0A6FB01205849087058480068FF
:102BB000042802D1002002F0E2FB554800682828D2
:102BC00002D1724802F0DBFB51480068482802D16C
:102BD0006F4802F0D4FB4E480068682802D16D4867
:102BE00002F0CDFB4A480068882802D16A4802F00A
:102BF000C6FB47480068F02802D1002002F0BFFB66
:102C000043480068B0F5A07F03D10021634804F079
:102C10008BF93F480068B0F5A27F08DB3C480068AC
:102C2000B0F5EB7F03DA5E49084605F062FB3848F1
:102C30000068B0F5EB7F07DB35480068B0F50C7F26
:102C400002DC4F4805F009F931480068B0F50C7F07
:102C500007DB00202D4908702D4908600120344908
:102C6000087050480068401C4E4908600121264801
:102C700004F09CF970BD2DE9F04786B04FF0FF35A8
:102C8000AA46A94600240026142101A805F0FEFD4D
:102C90000821454804F038FB30B1434804F0CAFA33
:102CA0000821414804F03DFB40F225513E4804F024
:102CB00041FB002827D03C4804F0BCFAC1B23B4895
:102CC00002880088401C394B1880394881541846C6
:102CD0000088C72806DBC821354805F0B5FD00206F
:102CE0003249088031480088401E3149085C452837
:102CF00009D12E4800880F2805DD2C480088A0F156
:102D000001094C465DE097E0000C00407500002092
:102D100024000020000000202408004004000020BF
:102D20000C000020080000200000A04100003E40F0
:102D300074000020000C0140000070418000002061
:102D40000000FA437C000020140000201000002046
:102D50000000024300008C42000034430000C842DF
:102D600000008243000016430000B44300004842C4
:102D70000080464000002440000049400000C84157
:102D800000002042B8000020B40000200000F04104
:102D9000000070420000B4420000F0420004004015
:102DA00030F8FFFF78000020003801408C00002040
:102DB0001C0100202848005D202801D1254602E0A2
:102DC000641E002CF6DA00BFA54202D006B0BDE8B2
:102DD000F0876C1C002605E01F48005D01A988559E
:102DE000641C761C4C45F7DB01A808F0CDF90746BA
:102DF00008F036FB194908602C4606E01648005DCD
:102E0000532801D1A24602E0641E002CF6DA00BF6E
:102E10000AF10104002605E00F48005D01A988556C
:102E2000641C761CAC42F7DB01A808F0ADF907463C
:102E300008F016FB0A49086040F22551094804F0E1
:102E4000A3FA00BFC2E770477047704770477047EA
:102E500070477047704770471C0100200800002031
:102E60000C0000200038014008B50121482003F083
:102E70002FF92020ADF8000010208DF8030003206A
:102E80008DF802006946094802F066FE20210748D5
:102E900002F00FFF2020ADF800006946044802F060
:102EA0005BFE2021024802F004FF08BD000C014037
:102EB000001801401FB50121082003F009F9012184
:102EC000084603F005F90420ADF80C0048208DF801
:102ED0000F0003A9124802F03FFE0221012002F078
:102EE00051FF0420019000208DF808000C208DF87F
:102EF000090001208DF80A0001A804F06DFA0820ED
:102F00008DF8000003208DF8010002208DF80200EA
:102F100001208DF80300684602F055FD1FBD704783
:102F2000000C01407FB505460C460121082003F046
:102F3000DCF8ADF80850ADF804400020ADF80A0008
:102F4000ADF8060001A90C4803F0FAF90122114678
:102F5000094803F06CFD32208DF8000001208DF847
:102F6000010000208DF8020001208DF80300684662
:102F700002F029FD7FBD0000000C004070B5054641
:102F80000C4600F0F1F9D02000F0A2FA00F02DFA82
:102F900018B100F009FA012070BD284600F098FA37
:102FA00000F023FA204600F093FA00F01EFA18B160
:102FB00000F0FAF90120EFE700F0F6F90020EBE766
:102FC00070B504460025BC2C01DB012510E0622C05
:102FD00001DB02250CE02A2C01DB032508E0142C80
:102FE00001DB042504E00A2C01DB052500E00625B1
:102FF00029461A20FFF7C2FF70BD70B50446B4F52C
:103000007A7F01DD4FF47A74042C00DA04244FF443
:103010007A7090FBF4F0401EC5B229461920FFF7E4
:10302000ADFF0546264604EBD671C1F34F00FFF70E
:10303000C7FF70BD70B5044600F096F9D02000F0CF
:1030400047FA00F0D2F9204600F042FA00F0CDF93C
:1030500000F08AF9D12000F03BFA00F0C6F9002018
:1030600000F061FA054600F09FF9284670BD10B5E2
:103070000446E006010E1C20FFF780FF10BD10B5CE
:103080000446E006010E1B20FFF778FF10BD38B59F
:103090000121084603F01CF80121042003F018F870
:1030A0004FF40040ADF8000010208DF8030003201D
:1030B0008DF802006946964802F04EFD01219548C0
:1030C00002F01BFE00209449086000F034F98021D2
:1030D0006B20FFF753FF322002F065FA00216B20CE
:1030E000FFF74CFF0320FFF7CAFF0020FFF7BFFFE9
:1030F0003220FFF782FF00213820FFF73FFF002139
:103100006A20FFF73BFF00212320FFF737FF8021D4
:103110003720FFF733FF7520FFF78CFF0446682C3C
:103120000CD101216B20FFF729FF00216C20FFF754
:1031300025FF4FF4C870FFF760FF01E0012038BDA4
:103140000020FCE72DE9F04106460F4614461D46D7
:1031500000F00AF9002141EA4601C8B200F0B8F9CE
:1031600000F043F920B100F01FF90120BDE8F08123
:10317000384600F0ADF900F038F900F0F5F801211B
:1031800001EB4601C8B200F0A3F900F02EF90DE002
:10319000012C04D1002000F0C6F9287003E00120C2
:1031A00000F0C1F92870601EC4B26D1C002CEFD174
:1031B00000F0FAF80020D9E72DE9F84F6B4602221B
:1031C00041216820FFF7BEFF9DF801009DF8001027
:1031D00040EA01200FFA80FA504608F020FC8046B1
:1031E00000224E4B08F02AFA06464D4A4D4B08F095
:1031F00069F9044608F034F983464B49584609F00A
:10320000B1F9044609F012F900B2BDE8F88F2DE9D2
:10321000FC4104460D4616466B46062243216820B3
:10322000FFF790FF0746BFB99DF801009DF8001019
:1032300040EA012000B220809DF803009DF80210B2
:1032400040EA012000B228809DF805009DF8041096
:1032500040EA012000B230803846BDE8FC812DE90B
:10326000FC4104460D4616466B4606223B2168206B
:10327000FFF768FF0746BFB99DF801009DF80010F1
:1032800040EA012000B220809DF803009DF8021062
:1032900040EA012000B228809DF805009DF8041046
:1032A00040EA012000B230803846BDE8FC812DE9BB
:1032B000F04105460E461746984600F055F80021A5
:1032C00041EA4501C8B200F003F900F08EF820B1E0
:1032D00000F06AF80120BDE8F081304600F0F8F80F
:1032E00000F083F800240CE018F8040000F0F0F877
:1032F00000F07BF818B100F057F80120EBE7601CF4
:10330000C4B2BC42F0DB00F04FF80020E3E700005D
:103310000008014000023000BC012142004075401D
:10332000A4703D0AD74342400000C84210B50220B5
:1033300002F015F910BD08B50121082002F0C8FE01
:103340004FF44070ADF8000010208DF8030003200A
:103350008DF8020069468D4802F0FEFB4FF4407183
:103360008A4802F0A6FC08BD10B58848001D006818
:1033700020F0F0008549091D08600846006840F00B
:10338000300008600120824908608249C1F8A0012C
:10339000FFF7CCFF00207E490860FFF7C7FF002041
:1033A0007C49C1F8A00110BD10B57848001D006827
:1033B00020F0F0007549091D08600846006840F0DB
:1033C0003000086000207249091F08607149C1F887
:1033D000A401FFF7ABFF01206D49091F08606D498B
:1033E000C1F8A401FFF7A2FF10BD10B50024674883
:1033F000001D006820F0F0006449091D08600846BF
:10340000006840F080000860012061490860FFF713
:103410008DFF01205F49C1F8A001FFF787FF07E09A
:10342000601CC4B2FA2C03DDFFF7BEFF012010BD03
:103430005748803800680028F2D15549091F0860B4
:1034400000BFF4E710B500205149091F08604F483C
:10345000001D006820F0F0004C49091D0860084676
:10346000006840F03000086000204A49C1F8A4011B
:10347000FFF75CFF01204649091F0860FFF756FF70
:1034800000204449C1F8A00110BD10B500204049FA
:10349000091F08603D48001D006820F0F0003B490E
:1034A000091D08600846006840F0300008600120EF
:1034B0003849C1F8A401FFF739FF01203449091F39
:1034C0000860FFF733FF00203249C1F8A00110BDAA
:1034D00070B504462D48001D006820F0F0002B490F
:1034E000091D08600846006840F0300008600020B0
:1034F0002749091F0860002512E0E00924490860F7
:103500006006040E01202349C1F8A001FFF70EFF59
:1035100000201F49091F0860FFF708FF681CC5B29B
:10352000082DEADB70BD70B5054600241748001D64
:10353000006820F0F0001549091D08600846006881
:1035400040F080000860002615E000201049091FA7
:103550000860FFF7EBFE01200E49C1F8A0016006EC
:10356000040E0B488038006808B1601CC4B2FFF735
:10357000DDFE701CC6B2082EE7DB15B9FFF785FF2C
:1035800001E0FFF75FFF204670BD0000000C014026
:10359000A48121420080214210B5C8234FF48062EB
:1035A000F74940F6F630FEF763FE10BD10B586B061
:1035B0000446F4A000680390F3A000680290F3A012
:1035C00000680190F2A00068009004F0030003A9D5
:1035D000085C8DF8140003A8C4F3C101405C8DF8A9
:1035E000150003A8C4F38111405C8DF8160004F0A7
:1035F000030002A9085C8DF8100002A8C4F3C10101
:10360000405C8DF8110002A8C4F38111405C8DF874
:10361000120005AA032140F22640FEF7AFFD18B1C3
:103620004FF0FF3006B010BD04AA032140F22A403B
:10363000FEF7A4FD10B14FF0FF30F3E701980590BD
:103640000098049004F0040058B19DF8140040F074
:1036500001008DF814009DF8100040F001008DF875
:10366000100004F0200058B19DF8150040F0010052
:103670008DF815009DF8110040F001008DF8110043
:1036800004F4807058B19DF8160040F001008DF8E8
:1036900016009DF8120040F001008DF8120005AAF6
:1036A00003214FF48860FEF769FD10B14FF0FF3041
:1036B000B8E704AA032140F23140FEF75FFD10B1E4
:1036C0004FF0FF30AEE7B34804810020AAE71FB5F2
:1036D0000446B048007A00F0030054F8200001903E
:1036E000AC48007A00F0040010B10198404201900B
:1036F000A848007AC0F3C10054F820000290A54801
:10370000007A00F0200010B1029840420290A148D7
:10371000007AC0F3811054F8200003909D4800897E
:1037200000F4807010B10398404203909A490198C8
:1037300080FB0101800F40EA8100019096490298C8
:1037400080FB0110820042EA917002909249039836
:1037500080FB0110820042EA917003900198000EF4
:103760008DF800000198000C8DF801000198000A06
:103770008DF802000198C0B28DF803006A4604215A
:103780004FF47470FEF7FAFC18B14FF0FF3004B03C
:1037900010BD0298000E8DF800000298000C8DF804
:1037A00001000298000A8DF802000298C0B28DF85C
:1037B00003006A4604214FF47570FEF7DFFC10B178
:1037C0004FF0FF30E3E70398000E8DF800000398F8
:1037D000000C8DF801000398000A8DF80200039890
:1037E000C0B28DF803006A4604214FF47670FEF7EC
:1037F000C5FCCCE770B588B0064601A8FDF7C5FE4C
:10380000BDF804000021C90341EA5045C4036148E2
:10381000007A00F0030056F8200005905D48007A19
:1038200000F0040010B10598404205905948007A14
:10383000C0F3C10056F8200006905648007A00F008
:10384000200010B10698404206905248007AC0F31A
:10385000811056F8200007904E48008900F48070CF
:1038600010B10798404207900598C117A0FB0423A8
:1038700001FB043100FB0510810041EA92700590C4
:103880000698C117A0FB042301FB043100FB0510BF
:10389000810041EA927006900798C117A0FB0423AB
:1038A00001FB043100FB0510810041EA9270079092
:1038B0000598000E8DF808000598000C8DF8090099
:1038C0000598000A8DF80A000598C0B28DF80B0023
:1038D0000698000E8DF80C000698000C8DF80D006F
:1038E0000698000A8DF80E000698C0B28DF80F00F9
:1038F0000798000E8DF810000798000C8DF8110045
:103900000798000A8DF812000798C0B28DF81300CE
:1039100002AA0C214FF42570FEF730FC08B070BDF0
:1039200030B585B004461DA207CA02AB07C3C82C38
:1039300003DD4FF0FF3005B030BDC82090FBF4F040
:10394000401E85B2280A8DF80000E8B28DF801000B
:103950006A46022140F21620FEF710FC10B14FF02B
:10396000FF30E8E702AA0C2140F6C120FEF706FC72
:1039700010B14FF0FF30DEE7064884810020DAE71F
:103980009CC900084CCD6C000CC92C003656760042
:10399000264666000C01002009E3CA02FEF2ABC411
:1039A000AAF1DFDFBBAFDFDF0146FC48808908807A
:1039B000002070472DE9FC4706460F4606F0070039
:1039C00010B1B7F5C86F03DD4FF0FF30BDE8FC87DD
:1039D000384608F07FFD8146F14908F031FC804609
:1039E0006846FDF756FD9DF80000022806D0042821
:1039F00016D0082826D0102848D135E04FF08D4148
:103A0000404608F0AFFD814608F02CFD84B2E54940
:103A1000404608F0A7FD814608F024FD85B238E055
:103A20004FF08C41404608F09DFD814608F01AFD9C
:103A300084B2DD49404608F095FD814608F012FD4C
:103A400085B226E04FF08B41404608F08BFD814661
:103A500008F008FD84B2D549404608F083FD814650
:103A600008F000FD85B214E04FF08A41404608F0AE
:103A700079FD814608F0F6FC84B2CD49404608F055
:103A800071FD814608F0EEFC85B202E04FF0FF3098
:103A90009CE700BF20128DF80400E0B28DF805000D
:103AA00028128DF80600E8B28DF8070006F0010034
:103AB000A0B101AA02214FF4EA70FEF75FFB10B13A
:103AC0004FF0FF3082E70DF1060202214FF49270B1
:103AD000FEF754FB10B14FF0FF3077E706F002001D
:103AE000A0B101AA02214FF4EC70FEF747FB10B120
:103AF0004FF0FF306AE70DF1060202214FF4947097
:103B0000FEF73CFB10B14FF0FF305FE706F004001A
:103B1000A0B101AA02214FF4EE70FEF72FFB10B105
:103B20004FF0FF3052E70DF1060202214FF496707C
:103B3000FEF724FB10B14FF0FF3047E7002045E7C8
:103B400038B504460020009004F0010020B19DF833
:103B5000000040F03000009004F0020020B19DF819
:103B6000000040F00C00009004F0040020B19DF82B
:103B7000000040F0030000906A4601214FF4A47059
:103B8000FEF7FCFA38BD38B50446012C01DA0124F1
:103B900002E0042C00DD0424601EC0B200906A46DE
:103BA000012140F24F10FEF7E9FA38BD38B504465E
:103BB000052094FBF0F085B228128DF80000E8B2E1
:103BC0008DF801006A4602214FF4EF70FEF7D6FA35
:103BD00038BD38B50446052094FBF0F085B22812B4
:103BE0008DF80000E8B28DF801006A4602214FF41A
:103BF000ED70FEF7C3FA38BDF8B505460E464FF432
:103C00007A7095FBF0F000FB06F4200E8DF80000B2
:103C1000200C8DF80100200A8DF80200E0B28DF82A
:103C200003006A4604214FF4AE70FEF7A7FAF8BD10
:103C300038B50446052094FBF0F084B220128DF8CC
:103C40000000E0B28DF801006A4602214FF4AD7029
:103C5000FEF794FA38BD38B50446052094FBF0F021
:103C600084B220128DF80000E0B28DF801006A469F
:103C700002214FF4AC70FEF781FA38BD38B5044626
:103C800014B94FF0FF3038BD6A4604214FF4587024
:103C9000FEF7B1FA10B14FF0FF30F4E79DF80000E5
:103CA00000069DF8011040EA01409DF8021040EA2C
:103CB00001209DF80310084320600020E3E738B599
:103CC0000446200E8DF80000200C8DF80100200A1B
:103CD0008DF80200E0B28DF803006A4604214FF42B
:103CE0005870FEF74BFA38BD38B5044614B94FF09A
:103CF000FF3038BD6A4604214FF47170FEF77BFA3D
:103D000010B14FF0FF30F4E79DF8000000069DF879
:103D1000011040EA01409DF8021040EA01209DF8A0
:103D20000310084300EB8000800020600020E0E7E3
:103D300038B504461420B4FBF0F4200E8DF80000D2
:103D4000200C8DF80100200A8DF80200E0B28DF8F9
:103D500003006A4604214FF47170FEF70FFA38BD74
:103D600038B5044664B120208DF8000028208DF875
:103D7000010030208DF8020038208DF8030004E0A7
:103D8000A3220421684604F057FD6A46042140F648
:103D90009E20FEF7F3F9FCF74BFE38BD0C01002026
:103DA00000004843000040460000C0450000404578
:103DB0000000C04438B5044664B1C0208DF800004E
:103DC000C2208DF80100C4208DF80200C6208DF8B5
:103DD000030004E08B220421684604F02DFD6A46AE
:103DE000042140F69820FEF7C9F9FCF721FE38BD02
:103DF0003EB504466CB1FDA1D1E900208968CDE94A
:103E0000002002916A4609214FF49760FEF7B6F947
:103E10003EBDF9A2D2E900109268CDE901020091FD
:103E20006A4609214FF49760FEF7A8F9F0E73EB51E
:103E3000044602208DF80000CA208DF80100E3201E
:103E40008DF8020009208DF803006A4604216820DD
:103E5000FEF794F9A3208DF8000004F0400048B16B
:103E6000C0208DF80100C8208DF80200C2208DF816
:103E7000030006E0A3208DF801008DF802008DF804
:103E8000030004F4C07048B1C4208DF80400CC20B5
:103E90008DF80500C6208DF8060006E0A3208DF8F9
:103EA00004008DF805008DF80600A3208DF80700AA
:103EB0008DF808008DF809006A460A2140F6A7200F
:103EC000FEF75CF904F0030018B120208DF8000023
:103ED00002E0D8208DF800006A46012140F6B620A5
:103EE000FEF74CF904F0200018B10120FFF780FF25
:103EF00002E00020FFF77CFF04F4C07008B304F474
:103F0000807060B1B2208DF800008B208DF8010028
:103F1000B6208DF802009B208DF803000BE0B02046
:103F20008DF8000080208DF80100B4208DF802008B
:103F300090208DF803006A46042140F6A220FEF787
:103F40001DF904F0010020B3F8208DF800006A4646
:103F500001214FF40B60FEF711F9FA210720FFF75A
:103F600029FD0720FFF7ECFD0120FFF70CFE642080
:103F7000FFF71CFE4FF4FA70FFF72BFEC821A14893
:103F8000FFF73AFE2820FFF753FE0A20FFF763FEF3
:103F900008E0D8208DF800006A4601214FF40B603C
:103FA000FEF7ECF804F0020018B1D9208DF80000FB
:103FB00002E0D8208DF800006A46012140F23D70F1
:103FC000FEF7DCF804F0040018B10120FFF7F2FE60
:103FD00002E00020FFF7EEFE04F0100018B101200F
:103FE000FFF7BEFE02E00020FFF7BAFE44F0080033
:103FF00085494881FCF71CFD00208349887304F043
:10400000400018B10846807B801D887304F4C0709E
:1040100020B17D48807B801D7B49887304F01400AB
:1040200020B17948807B10307749887304F0030011
:1040300020B17548807B001D7349887300203EBD08
:104040000146714840890880002070472DE9F04101
:104050000446E07800F0C006E07800F03F056078A4
:1040600000F0010098B1EF102846E91705EB5171F7
:10407000C910A5EBC101491C01F0FF0862480068A6
:1040800020B16148414602683846904700BF6078D9
:1040900000F0080030B15C48406818B1B0115A4ACD
:1040A000516888470020BDE8F08110B586B004460D
:1040B00056A207CA03AB07C357A207CA8DE8070079
:1040C000012C09D0022C0ED103AA0B2140F682202C
:1040D000FEF754F806B010BD6A460B2140F6822068
:1040E000FEF74CF8F6E74FF0FF30F3E72DE9F04F1D
:1040F0008DB00746884615469946DDE9166B0024C3
:10410000002030804049887B5A4605A9FDF799FB7D
:1041100018B1601E0DB0BDE8F08F3B48807A00F00A
:104120001400002861D09DF8140000069DF81510B9
:1041300040EA01409DF8161040EA01209DF8171052
:10414000084328609DF8180000069DF8191040EA01
:1041500001409DF81A1040EA01209DF81B10084309
:1041600068609DF81C0000069DF81D1040EA0140A3
:104170009DF81E1040EA01209DF81F100843A8601A
:104180009DF8200000069DF8211040EA01409DF8AE
:10419000221040EA01209DF823100843E86004F152
:1041A0001000C4B2286800140190686800140290DE
:1041B000A86800140390E868001404900198404334
:1041C000029901FB0100039901FB0100049901FB25
:1041D000010ABAF1706F02DBBAF1885F22DDFCF7E9
:1041E00027FC00203080401E94E721E0B8AAB38D60
:1041F000B4980D355D000000B8AAAAAAB088C3C55E
:10420000C700000009E3CA020C010020D8B1B9F3CD
:104210008BA391B609B4D900DAB1B9F38BA391B6E7
:10422000DAB4DA00B6F9000040F48070308000BFE4
:104230003448807A00F0400020B305A9601C085C77
:10424000095D40EA012000B2A8F8000005A9E01CC1
:10425000095C05AAA01C105C41EA002000B2A8F885
:10426000020005A9601D095C201D105C41EA0020C8
:1042700000B2A8F80400A01DC4B2B6F9000040F0D6
:10428000080030801F48408900F4C07008B305A9B9
:10429000601C085C095D40EA012000B2388005A975
:1042A000E01C095C05AAA01C105C41EA002000B2D9
:1042B000788005A9601D095C201D105C41EA002082
:1042C00000B2B880A01DC4B2B6F9000040F0700082
:1042D00030800C48807A00F0030018B105A9081955
:1042E000FFF7B4FE4846FCF710FF002012E7014636
:1042F00004480160002070470146024841600020E8
:10430000704700000C01002070B504460E4626B12F
:104310000121F64801F0CDFC03E00121F34801F052
:10432000CAFC002517E00221F14801F0C4FC04F0AA
:10433000800020B10821EE4801F0BBFC03E0082119
:10434000EB4801F0B8FC0221E94801F0B2FC60063C
:10435000040E681CC5B2082DE5DB0121E34801F01D
:10436000A8FC70BD07E040F2375100BF0A00A1F180
:104370000101FBD1401E0028F5D1704770B50446FD
:1043800008250121D94801F094FC00BF0221D8483A
:1043900001F091FC00BF16E004F0800020B108217C
:1043A000D34801F086FC03E00821D14801F083FCEA
:1043B0000221CF4801F07DFC00BF0221CC4801F072
:1043C0007AFC6006040E2800A5F10101CDB2E3D10C
:1043D00070BD70B5044608250121C44801F06BFC8E
:1043E0000221C34801F067FC00BF16E004F0800022
:1043F00020B10821BE4801F05CFC03E00821BC4864
:1044000001F059FC0221BA4801F053FC00BF02211F
:10441000B74801F050FC6006040E2800A5F1010128
:10442000CDB2E3D170BD70B50646002415E004F1AD
:10443000B001C8B2FFF7CDFF0120FFF7CAFF10207F
:10444000FFF7C7FF002504E03046FFF797FF681C21
:10445000C5B2802DF8DB601CC4B2082CE7DB70BD50
:1044600008B50121102001F033FE0121202001F0C8
:104470002FFE1A20ADF8000003208DF80200102056
:104480008DF8030069469A4801F066FB0120ADF8FB
:10449000000003208DF8020010208DF8030069460B
:1044A000924801F059FB0221914801F002FC1021D1
:1044B0008F4801F000FC3220FFF754FF10218C4898
:1044C00001F0F7FB0021AE20FFF71EFF0021D520F1
:1044D000FFF71AFF00218020FFF716FF0021A82018
:1044E000FFF712FF00213F20FFF70EFF0021D3202E
:1044F000FFF70AFF00210846FFF706FF00214020D2
:10450000FFF702FF00218D20FFF7FEFE002114209F
:10451000FFF7FAFE00212020FFF7F6FE002102201F
:10452000FFF7F2FE0021A120FFF7EEFE0021C820D8
:10453000FFF7EAFE0021DA20FFF7E6FE0021122055
:10454000FFF7E2FE00218120FFF7DEFE0021EF20D1
:10455000FFF7DAFE0021D920FFF7D6FE0021F12077
:10456000FFF7D2FE0021DB20FFF7CEFE0021402026
:10457000FFF7CAFE0021A420FFF7C6FE0021A620F7
:10458000FFF7C2FE0021AF20FFF7BEFE0020FFF7BD
:104590004AFF08BD70B504460D4605F1B001C8B22A
:1045A000FFF717FF102141EA1410FFF712FF04F084
:1045B0000F00FFF70EFF70BD70B5002415E004F189
:1045C000B001C8B2FFF705FF0120FFF702FF10207E
:1045D000FFF7FFFE002504E00020FFF7CFFE681C78
:1045E000C5B2802DF8DB601CC4B2082CE7DB70BDBF
:1045F00010B504462046FFF7ECFE10BD70B504462A
:104600002546E11704EB11710911A4EB0111C8B2A1
:10461000FFF7DFFE2546E11704EB11710911103198
:10462000C8B2FFF7D6FE70BD10B504462020FFF7D4
:10463000D0FE2046FFF7CDFE10BD70B505460C46F6
:104640002120FFF7C6FE2846FFF7C3FE2046FFF7EE
:10465000C0FE70BD70B505460C462220FFF7B9FEBE
:104660002846FFF7B6FE2046FFF7B3FE70BD10B533
:10467000044644F04000FFF7ACFE10BD10B5044600
:104680008120FFF7A6FE2046FFF7A3FE10BD10B560
:1046900004468D20FFF79DFE44F01000FFF799FEC1
:1046A00010BD10B5044644F0A000FFF792FE10BD07
:1046B00010B5044644F0A400FFF78BFE10BD10B502
:1046C000044644F0A600FFF784FE10BD10B5044672
:1046D000A820FFF77EFE2046FFF77BFE10BD10B539
:1046E000044644F0AE00FFF774FE10BD0010014018
:1046F0000014014010B5044644F0B000FFF769FE15
:1047000010BD10B5044644F0C000FFF762FE10BDB6
:1047100010B50446D320FFF75CFE2046FFF759FE94
:1047200010BD10B50446D520FFF753FE2046FFF715
:1047300050FE10BD10B50446D920FFF74AFE2046B2
:10474000FFF747FE10BD10B50446DA20FFF741FE23
:1047500044F00200FFF73DFE10BD10B50446DB201B
:10476000FFF737FE2046FFF734FE10BD10B5E320FB
:10477000FFF72FFE10BD2DE9F04704468846154689
:104780004FF000090026002741462046FFF702FFB0
:104790001CE0E85D203800F0FF097E2C04DD0024D9
:1047A00008F1010000F0FF08002609E009EB4901CB
:1047B000FE4A02EB4101885DFFF7E0FD701CC6B2C6
:1047C000062EF3DBA01DC4B2781CC7B2E85D00283A
:1047D000DFD1BDE8F0872DE9F04706460F46904649
:1047E00000250024A14631E018F809002038C5B2A0
:1047F000782E02DD0026781CC7B239463046FFF716
:10480000C9FE002407E004EB0511E94A505CFFF7FC
:10481000B5FD601CC4B2082CF5DB781CC1B2304673
:10482000FFF7B8FE002408E004EB05110831E04A68
:10483000505CFFF7A3FD601CC4B2082CF4DB06F14A
:104840000800C6B209F1010000F0FF0918F80900DC
:104850000028C9D1BDE8F0872DE9F04781460F4611
:1048600090460024002601256BE00024012513E07A
:10487000D048005D18F8061088420BD1CD49601C65
:10488000095C701C18F80000814203D1C4EBC4001D
:10489000450005E0A01CC4B2C648005D7F28E7DCE7
:1048A00000BFB9F1760F03DD4FF00009781CC7B2E5
:1048B00039464846FFF76EFE012D1FD0394648465F
:1048C000FFF768FE002406E0BB49485DFFF756FD90
:1048D0006D1C601CC4B20E2CF6DB781CC1B24846BD
:1048E000FFF758FE002406E0B349485DFFF746FD98
:1048F0006D1C601CC4B20E2CF6DB1CE0701CC6B232
:1049000039464846FFF746FE002404E00020FFF742
:1049100035FD601CC4B2102CF8DB781CC1B24846CF
:10492000FFF738FE002404E00020FFF727FD601C9D
:10493000C4B2102CF8DB09F10E0000F0FF09B01C26
:10494000C6B218F8060000288FD1BDE8F087F8B588
:1049500006460F461546002427E0285D7F2814DD13
:10496000285D8DF80000601C285C8DF80100002097
:104970008DF802006A4639463046FFF76DFF06F1B2
:104980000E00C6B2A01CC4B20FE0285D8DF8000076
:1049900000208DF801006A4639463046FFF71BFFBC
:1049A00006F10800C6B2601CC4B2285D0028D4D14C
:1049B000F8BDF8B505460C461646E006040E8DF81F
:1049C000006000208DF801006A4629462046FFF766
:1049D000D2FEF8BDF8B507460E4615460024F0068F
:1049E000060E27E0285D7F2814DD285D8DF8000085
:1049F000601C285C8DF8010000208DF802006A46DA
:104A000039463046FFF728FF06F10E00C6B2A01C5B
:104A1000C4B20FE0285D8DF8000000208DF8010081
:104A20006A4639463046FFF7D6FE06F10800C6B2A0
:104A3000601CC4B2285D0028D4D1F8BD2DE9FC412A
:104A400007460E4614469846002500200090019027
:104A5000F006060E42F21070B4FBF0F00A21B0FB33
:104A6000F1F201FB12008DF800004FF47A70B4FBF4
:104A7000F0F0B0FBF1F201FB12008DF801006420B0
:104A8000B4FBF0F0B0FBF1F201FB12008DF8020074
:104A90000A20B4FBF0F0B0FBF1F201FB12008DF83C
:104AA00003000A20B4FBF0F100FB11408DF8040074
:104AB00000BF07E01DF805003030C0B20DF805005A
:104AC000681CC5B2052DF5DBC8F105006946421822
:104AD00039463046FFF77FFEBDE8FC812DE9FF5FD8
:104AE00086B014461D464FF0010A00200390049042
:104AF00005904FF00109002600BF834600221346AF
:104B00002046294606F0B6FF09D285F00040CDE9DF
:104B100000402046019906F025FF064604E02046A5
:104B2000294606F01FFF0646304606F078FF22466B
:104B30002B46CDE9000107F00DF907468846002213
:104B40001E4B3846414606F0D1FFCDE9000106F084
:104B500039FF834607E009EB89004FEA40090AF173
:104B6000010000F0FF0A0A2096FBF0F090FBF9F03C
:104B70000028F0D142F2107096FBF0F00A2190FB71
:104B8000F1F201FB1200C0B28DF80C004FF47A7004
:104B900096FBF0F090FBF1F201FB1200C0B28DF831
:104BA0000D00642096FBF0F00AE0000092D50008AA
:104BB0008BDA0008BAD70008EBD700080088C3409A
:104BC00090FBF1F201FB1200C0B28DF80E000A203A
:104BD00096FBF0F090FBF1F201FB1200C0B28DF8F1
:104BE0000F000A2096FBF0F100FB1160C0B28DF8B7
:104BF00010002E208DF811004FF47A70BBFBF0F0FE
:104C00000A21B0FBF1F201FB12008DF812006420C2
:104C1000BBFBF0F0B0FBF1F201FB12008DF81300CA
:104C20000A20BBFBF0F0B0FBF1F201FB12008DF8A3
:104C300014000A20BBFBF0F100FB11B08DF8150049
:104C400000211498801D03AA1154894608E003A886
:104C500010F80900303003A901F8090009F1010931
:104C6000B9F10A0FF3DB002213462046294606F06D
:104C700001FF08D20AF1010000F0FF0A2D20CAF15D
:104C8000050103AA50542E208DF81100002114981C
:104C9000801D03AA1154CAF1050003A94218DDE9D9
:104CA0000610FFF768FD0AB0BDE8F09F2DE9F04F50
:104CB00089B08246894617469846DDF84CB00120F7
:104CC000079000200490059006900124002500BF65
:104CD00000264FEAC9604FEA10693846414606F09F
:104CE00041FE0546284606F0B1FE3A464346CDE968
:104CF000000107F02FF8CDE902010022E84BDDE9C1
:104D0000020106F0F3FECDE9000106F05BFE064667
:104D100006E004EB840044000798401CC0B20790F2
:104D20000A20B5FBF0F0B0FBF4F00028F1D142F21C
:104D30001070B5FBF0F00A21B0FBF1F201FB12009C
:104D40008DF810004FF47A70B5FBF0F0B0FBF1F283
:104D500001FB12008DF811006420B5FBF0F0B0FBF0
:104D6000F1F201FB12008DF812000A20B5FBF0F001
:104D7000B0FBF1F201FB12008DF813002E208DF82C
:104D800015004FF47A70B6FBF0F0B0FBF1F201FBC6
:104D900012008DF816006420B6FBF0F0B0FBF1F2C3
:104DA00001FB12008DF817000A20B6FBF0F0B0FBF3
:104DB000F1F201FB12008DF818000A20B6FBF0F1A9
:104DC00000FB11608DF8190000210BF1060004AA08
:104DD0001154002405E004A8005D303004A90855F2
:104DE000641C0A2CF7DB2E208DF8150000210BF136
:104DF000060004AA11541298C0F1050004A9421833
:104E000051464846FFF7E7FC09B0BDE8F08F70B5A2
:104E10000026002411E021460020FFF7BBFB0025FF
:104E200007E03146761C9F4A505CFFF7A7FA681CE2
:104E3000C5B2802DF5DB601CC4B2082CEBDB70BD65
:104E4000F8B506460F4614460020009002250DE0F6
:104E50000A2094FBF0F100FB11403030C0B20DF895
:104E600005000A2094FBF0F0C4B26D1E002DEFDAAD
:104E70006A4639463046FFF7AEFCF8BDF8B506463F
:104E80000F4614460020009002250DE00A2094FBF6
:104E9000F0F100FB11403030C0B20DF805000A20DF
:104EA00094FBF0F0C4B26D1E002DEFDA6A4639466D
:104EB0003046FFF760FCF8BD2DE9F04105460F468E
:104EC000164600BF05EB45014906080E3946FFF7B7
:104ED00061FB00240AE006F1100101EB4101724A76
:104EE00002EB4101085DFFF749FA641C062CF2DB76
:104EF000BDE8F0812DE9F04105460E4614460A2032
:104F000094FBF0F100FB1140C7B20A2094FBF0F0D3
:104F100000F0FF08691CC8B23A463146FFF7CCFFE3
:104F2000424631462846FFF7C7FFBDE8F0812DE92C
:104F3000F04705460E4614466420B4FBF0F000F03E
:104F4000FF096420B4FBF0F100FB11400A21B0FB23
:104F5000F1F80A20B4FBF0F100FB11474A46314654
:104F60002846FFF7A9FF691CC8B242463146FFF741
:104F7000A3FFA91CC8B23A463146FFF79DFFBDE822
:104F8000F0872DE9F05F05468B4616463446002C27
:104F900000DA64424FF47A7094FBF0F0C7B24FF439
:104FA0007A7094FBF0F100FB1140642190FBF1F06A
:104FB00000F0FF08642094FBF0F100FB11400A218F
:104FC00090FBF1F000F0FF090A2094FBF0F100FBE8
:104FD000114000F0FF0A3A4659462846FFF76CFF99
:104FE000691CC8B242465946FFF766FFA91CC8B201
:104FF0004A465946FFF760FFE91CC8B25246594677
:10500000FFF75AFFBDE8F09F2DE9F05F05460E4619
:10501000144642F21070B4FBF0F0C7B242F21070C6
:10502000B4FBF0F100FB11404FF47A71B0FBF1F0EA
:1050300000F0FF080846B4FBF0F100FB11406421CA
:10504000B0FBF1F000F0FF096420B4FBF0F100FBCD
:1050500011400A21B0FBF1FA0A20B4FBF0F100FB89
:10506000114B3A4631462846FFF726FF691CC8B265
:1050700042463146FFF720FFA91CC8B24A463146D6
:10508000FFF71AFFE91CC8B252463146FFF714FF7A
:10509000291DC8B25A463146FFF70EFFBDE8F09F02
:1050A0000088C3407BE0000892D5000808B50121C4
:1050B000082001F00DF83020ADF8000010208DF828
:1050C000030003208DF8020069466D4800F044FD9E
:1050D0000121042000F0FCFF4FF41040ADF8000067
:1050E00010208DF8030003208DF802006946654802
:1050F00000F032FD08BD30B589B005460C460121EF
:10510000C80200F0E5FF0121042000F0E1FF0121C9
:10511000084600F0DDFF4FF41060ADF820001820C5
:105120008DF8230003208DF8220008A9554800F0CF
:1051300013FDA8B2ADF81800A0B2ADF8140000201D
:10514000ADF81A00ADF8160005A94F4801F0F8F8BF
:105150006020ADF804000120ADF806000020ADF895
:105160000A00ADF80C0001A9474801F026F901A991
:10517000454801F0FCF90121434801F049FC0821B0
:10518000414801F069FD08213F4801F084FD0121FB
:105190003D4801F031FD01213B4801F02DFC09B0F3
:1051A00030BD70B505460C4638493948006807F0EF
:1051B000A5FA05D337493648006807F09FF906D2AB
:1051C00000203149343108802F4940310880002DBA
:1051D0000EDD4FF400412B4800F06BFD20212848E4
:1051E00000F069FD05F5E1702749343108800FE0D2
:1051F000002D0DDA4FF40041224800F05CFD202123
:105200001F4800F056FDC5F5E1701F493431088094
:105210001D4834300088B0F57A7F04DD4FF47A7091
:10522000194934310880002C0EDD1021144800F09B
:1052300040FD4FF48051134800F03DFD04F5E1704E
:105240001149403108800FE0002C0DDA10210C4884
:1052500000F031FD4FF480510A4800F02AFDC4F5FA
:10526000E170094940310880074840300088B0F5B6
:105270007A7F04DD4FF47A7003494031088070BDB5
:10528000000C014000080140002C014000002042B9
:10529000D0000020000020C27FB505460C46012149
:1052A000022000F022FFA8B2ADF80800A0B2ADF8CD
:1052B00004000020ADF80A00ADF8060001A93D4841
:1052C00001F03EF8012211463A4801F0B0FB1D20E2
:1052D0008DF8000000208DF8010003208DF80200F9
:1052E00001208DF80300684600F06DFB0121314874
:1052F00001F082FB4FF4FA702E49343108807FBDF3
:1053000030B589B005460C460121022000F0EDFEC3
:105310000121052000F0DCFE4020ADF8200018201F
:105320008DF8230003208DF8220008A9224800F000
:1053300013FCA8B2ADF81800A0B2ADF8140000201C
:10534000ADF81A00ADF8160005A91A4800F0F8FFEC
:105350006020ADF804000120ADF806000020ADF893
:105360000C0001A9134801F028F80821114801F0A8
:1053700073FC01210F4801F03FFB09B030BD2DE95E
:10538000F04104460D49204607F0ECF807460C4969
:1053900006F056FF06460B4906F0E4FE0546284691
:1053A00007F060F886B23146024801F0BDFDBDE865
:1053B000F081000000040040000801400000FA44B1
:1053C000000034430000FA4300B587B001210846CD
:1053D00000F08BFE0121042000F07AFE0320ADF8DE
:1053E000000004208DF8030069464D4800F0B4FB2E
:1053F00004A801F0D1FA4FF6FF70ADF814000020B8
:10540000ADF81000ADF81600ADF8120004A94FF089
:10541000804000F095FF00231A4603214FF08040A2
:1054200001F09DFB01A801F0CAFA0A20ADF80C00BA
:1054300001A9400701F017FA0121880701F0A2FD38
:1054400001221146900701F0F2FA00214FF080404E
:1054500001F066FD0121880701F0CEFA07B000BD1A
:1054600000B587B00121042000F03FFE0121082093
:1054700000F02EFEC020ADF8000004208DF80300DF
:105480006946284800F068FB04A801F085FA4FF649
:10549000FF70ADF814000020ADF81000ADF8160054
:1054A000ADF8120004A9204800F04AFF00231A4674
:1054B00003211D4801F053FB01A801F080FA0A20E6
:1054C000ADF80C0001A9184801F0CDF901211648EA
:1054D00001F058FD01221146134801F0A8FA0021FD
:1054E000114801F01DFD01210F4801F085FA07B0B8
:1054F00000BD10B501210C4801F047FD18B1012194
:10550000094801F053FD10BD10B50121880701F0D5
:105510003CFD18B10121880701F048FD10BD0000D5
:1055200000080140000C01400008004010B56FF079
:10553000040000F092FA2E4800682E49B0FBF1F00A
:105540002D4908700846007800EB4001C1EBC010FF
:105550004FF6FF7101EAC0002849088010BD0146DE
:10556000254A12784A434FF0E0235A6100229A619B
:105570001A46126942F001021A6100BF4FF0E022A0
:10558000106900F001021AB100F48032002AF5D04F
:105590004FF0E022126922F001024FF0E0231A617D
:1055A00000229A6170470146144A12884A434FF01C
:1055B000E0235A6100229A611A46126942F0010200
:1055C0001A6100BF4FF0E022106900F001021AB129
:1055D00000F48032002AF5D04FF0E022126922F068
:1055E00001024FF0E0231A6100229A617047000027
:1055F0002800002000127A0084000020860000208D
:10560000A34A0A400243A34B1A607047014607238E
:1056100023EA010212029F4B1B1D18684FF6FF037D
:1056200018409D4B184310439A4B1B1D1860704740
:105630002DE9F0410746884614461D462846FFF7E7
:10564000E5FFC5F1040007FA00F60F20284100EA43
:105650000800064306F00F06E21704EBD26252116F
:10566000920002F1E022D2F800212146E31704EB78
:10567000D3635B11A4EB431C012303FA0CF31A431D
:105680002046E31704EBD3635B119B0003F1E02397
:10569000C3F800218148005D40EA06107F490855A3
:1056A000BDE8F08170B504460B46CE1701EB967647
:1056B000C6F38700CE1701EB9676B610A1EB8606EF
:1056C000B606350E764B9B6943F00103744EB36109
:1056D0004FEAB63353F820300F26AE40B343714E35
:1056E00046F82030334653F8203004FA05F61E43BE
:1056F0006C4B43F820606C4B1B6801268E40334393
:10570000694E336002F0010343B1674B0C331B68F1
:1057100001268E403343644E0C36336002F00203A0
:1057200043B1614B08331E6801238B401E435E4B1F
:1057300008331E6070BD00B5002059490861C8607B
:105740001420486100208861C8610846006840F064
:1057500001000860084640685449084050494860C4
:1057600008460068524908404D49086008460068EC
:1057700020F4802008600846406820F4FE0048605D
:105780000020886000214FF00060FFF739FF00BD66
:1057900010B540480830006840F004003D49083129
:1057A00008603F48C06940F080503D49C8614148A9
:1057B000406840F480703F4948600846006840F007
:1057C000040008600846006840F002000860FAF72C
:1057D00015FD10BD3048001D2E49091D0860704799
:1057E000014649062E4A926942F001022C4B9A6109
:1057F0002C4A083A526822F0E0622A4B083B5A6071
:105800001A4652680A435A60704730B5044600256C
:10581000FFF791FF2248006840F48030204908607B
:1058200000BF1F480068400C0028FAD04FF4806089
:105830001B494860A01EC4B20846406840EA844044
:1058400048600846406840F4803048601A48006864
:1058500040F03200184908601148006840F080703C
:105860000F49086000BF0E480068400E0028FAD0BB
:105870000B48406840F002000949486005E00848CC
:105880004068C0F3870505F00305022DF7D130BD50
:1058900080FFFF1F08ED00E00000FA0500E400E0D3
:1058A0000010024008000140000401400000FFF821
:1058B000FFFFF6FE0070004000200240014600BFDE
:1058C000704700BF2B4A128802F04002002AF9D02C
:1058D000C2B2284B1B1D1A80704710B586B0044613
:1058E000012144F2040000F0F3FB4FF40070ADF826
:1058F000140003208DF8160018208DF8170005A954
:105900001D4800F029F94FF48060ADF81400042020
:105910008DF8170005A9184800F01EF925208DF80C
:10592000000000208DF8010003208DF80200012006
:105930008DF80300684600F046F801940020ADF8A9
:105940000800ADF80A00ADF80C00ADF810000C200E
:10595000ADF80E0001A9074801F06FFB012240F2EB
:105960002551044801F001FC0121024801F0F1FB3E
:1059700006B010BD003801400008014009488047CA
:1059800009480047FEE7FEE7FEE7FEE7FEE7FEE721
:10599000FEE7FEE7FEE7FEE704480549054A064B39
:1059A00070470000970500083101000888030020B7
:1059B000880900208805002088050020314901431E
:1059C000314A1160704770B5002100230F22C4785E
:1059D00004B32D4C246804F4E064C4F5E064210AA7
:1059E000C1F10403CA40447804FA03F184781440F6
:1059F00021430901254C0678A155047804F01F05C0
:105A00000124AC4005786D11AD0005F1E025C5F825
:105A1000004109E0047804F01F050124AC401C4D4E
:105A20000678761145F8264070BD1A4A0A400243AE
:105A3000154B1B1F1A60704739B1134A121D1268AB
:105A40000243114B1B1D1A6006E00F4A121D12681B
:105A500082430D4B1B1D1A607047042808D14FF07C
:105A6000E021096941F004014FF0E022116107E0F3
:105A70004FF0E021096921F004014FF0E0221161AB
:105A8000704700000000FA050CED00E000E400E0C3
:105A900080E100E080FFFF1F10B50446CC4884423F
:105AA00008D10121042000F02DFB0021042000F08A
:105AB00029FB46E0C748844208D10121082000F0B4
:105AC00021FB0021082000F01DFB3AE0C24884427F
:105AD00008D10121102000F015FB0021102000F05A
